{
  "contractName": "ArtComission",
  "abi": [
    {
      "inputs": [
        {
          "internalType": "uint256",
          "name": "_id",
          "type": "uint256"
        },
        {
          "internalType": "string",
          "name": "_author",
          "type": "string"
        },
        {
          "internalType": "string",
          "name": "_title",
          "type": "string"
        },
        {
          "internalType": "uint256",
          "name": "_price",
          "type": "uint256"
        },
        {
          "internalType": "string",
          "name": "_info",
          "type": "string"
        }
      ],
      "name": "post",
      "outputs": [
        {
          "internalType": "uint256",
          "name": "",
          "type": "uint256"
        }
      ],
      "stateMutability": "payable",
      "type": "function",
      "payable": true
    },
    {
      "inputs": [
        {
          "internalType": "uint256",
          "name": "_id",
          "type": "uint256"
        }
      ],
      "name": "purchase",
      "outputs": [],
      "stateMutability": "payable",
      "type": "function",
      "payable": true
    },
    {
      "inputs": [],
      "name": "get_all_comissions",
      "outputs": [
        {
          "components": [
            {
              "internalType": "uint256",
              "name": "id",
              "type": "uint256"
            },
            {
              "internalType": "address payable",
              "name": "authorAddress",
              "type": "address"
            },
            {
              "internalType": "string",
              "name": "author",
              "type": "string"
            },
            {
              "internalType": "string",
              "name": "title",
              "type": "string"
            },
            {
              "internalType": "uint256",
              "name": "price",
              "type": "uint256"
            },
            {
              "internalType": "string",
              "name": "info",
              "type": "string"
            },
            {
              "internalType": "bool",
              "name": "finished",
              "type": "bool"
            },
            {
              "internalType": "address",
              "name": "purchaserAddress",
              "type": "address"
            }
          ],
          "internalType": "struct ArtComission.Comission[]",
          "name": "",
          "type": "tuple[]"
        }
      ],
      "stateMutability": "view",
      "type": "function",
      "constant": true
    },
    {
      "inputs": [
        {
          "internalType": "bool",
          "name": "_finished",
          "type": "bool"
        }
      ],
      "name": "get_selected_comissions",
      "outputs": [
        {
          "components": [
            {
              "internalType": "uint256",
              "name": "id",
              "type": "uint256"
            },
            {
              "internalType": "address payable",
              "name": "authorAddress",
              "type": "address"
            },
            {
              "internalType": "string",
              "name": "author",
              "type": "string"
            },
            {
              "internalType": "string",
              "name": "title",
              "type": "string"
            },
            {
              "internalType": "uint256",
              "name": "price",
              "type": "uint256"
            },
            {
              "internalType": "string",
              "name": "info",
              "type": "string"
            },
            {
              "internalType": "bool",
              "name": "finished",
              "type": "bool"
            },
            {
              "internalType": "address",
              "name": "purchaserAddress",
              "type": "address"
            }
          ],
          "internalType": "struct ArtComission.Comission[]",
          "name": "",
          "type": "tuple[]"
        }
      ],
      "stateMutability": "view",
      "type": "function",
      "constant": true
    }
  ],
  "bytecode": "0x608060405234801561001057600080fd5b506120fe806100206000396000f3fe60806040526004361061003f5760003560e01c8063b55a4b0714610044578063e07280b814610074578063efef39a1146100b1578063f9920565146100cd575b600080fd5b61005e60048036038101906100599190611aa9565b6100f8565b60405161006b9190611b87565b60405180910390f35b34801561008057600080fd5b5061009b60048036038101906100969190611bda565b610826565b6040516100a89190611e8f565b60405180910390f35b6100cb60048036038101906100c69190611eb1565b610f9e565b005b3480156100d957600080fd5b506100e2611512565b6040516100ef9190611e8f565b60405180910390f35b6000803390506004600088815260200190815260200160002060009054906101000a900460ff16156105dd57600080600360008a8152602001908152602001600020548154811061014c5761014b611ede565b5b906000526020600020906007020160405180610100016040529081600082015481526020016001820160009054906101000a900473ffffffffffffffffffffffffffffffffffffffff1673ffffffffffffffffffffffffffffffffffffffff1673ffffffffffffffffffffffffffffffffffffffff1681526020016002820180546101d690611f3c565b80601f016020809104026020016040519081016040528092919081815260200182805461020290611f3c565b801561024f5780601f106102245761010080835404028352916020019161024f565b820191906000526020600020905b81548152906001019060200180831161023257829003601f168201915b5050505050815260200160038201805461026890611f3c565b80601f016020809104026020016040519081016040528092919081815260200182805461029490611f3c565b80156102e15780601f106102b6576101008083540402835291602001916102e1565b820191906000526020600020905b8154815290600101906020018083116102c457829003601f168201915b505050505081526020016004820154815260200160058201805461030490611f3c565b80601f016020809104026020016040519081016040528092919081815260200182805461033090611f3c565b801561037d5780601f106103525761010080835404028352916020019161037d565b820191906000526020600020905b81548152906001019060200180831161036057829003601f168201915b505050505081526020016006820160009054906101000a900460ff161515151581526020016006820160019054906101000a900473ffffffffffffffffffffffffffffffffffffffff1673ffffffffffffffffffffffffffffffffffffffff1673ffffffffffffffffffffffffffffffffffffffff168152505090508173ffffffffffffffffffffffffffffffffffffffff16816020015173ffffffffffffffffffffffffffffffffffffffff161461043557600080fd5b6005600089815260200190815260200160002060009054906101000a900460ff161561046057600080fd5b86816040018190525085816060018190525084816080018181525050838160a00181905250806000600360008b815260200190815260200160002054815481106104ad576104ac611ede565b5b90600052602060002090600702016000820151816000015560208201518160010160006101000a81548173ffffffffffffffffffffffffffffffffffffffff021916908373ffffffffffffffffffffffffffffffffffffffff1602179055506040820151816002019080519060200190610528929190611803565b506060820151816003019080519060200190610545929190611803565b506080820151816004015560a082015181600501908051906020019061056c929190611803565b5060c08201518160060160006101000a81548160ff02191690831515021790555060e08201518160060160016101000a81548173ffffffffffffffffffffffffffffffffffffffff021916908373ffffffffffffffffffffffffffffffffffffffff16021790555090505050610819565b60006040518061010001604052808981526020018373ffffffffffffffffffffffffffffffffffffffff168152602001888152602001878152602001868152602001858152602001600015158152602001600073ffffffffffffffffffffffffffffffffffffffff1681525090806001815401808255809150506001900390600052602060002090600702016000909190919091506000820151816000015560208201518160010160006101000a81548173ffffffffffffffffffffffffffffffffffffffff021916908373ffffffffffffffffffffffffffffffffffffffff16021790555060408201518160020190805190602001906106df929190611803565b5060608201518160030190805190602001906106fc929190611803565b506080820151816004015560a0820151816005019080519060200190610723929190611803565b5060c08201518160060160006101000a81548160ff02191690831515021790555060e08201518160060160016101000a81548173ffffffffffffffffffffffffffffffffffffffff021916908373ffffffffffffffffffffffffffffffffffffffff1602179055505050600154600360008981526020019081526020016000208190555060016004600089815260200190815260200160002060006101000a81548160ff02191690831515021790555060006005600089815260200190815260200160002060006101000a81548160ff02191690831515021790555060018060008282546108119190611f9c565b925050819055505b8691505095945050505050565b606060008215610be057600060025467ffffffffffffffff81111561084e5761084d61197e565b5b60405190808252806020026020018201604052801561088757816020015b610874611889565b81526020019060019003908161086c5790505b50905060005b600154811015610bd55760011515600082815481106108af576108ae611ede565b5b906000526020600020906007020160060160009054906101000a900460ff16151503610bc257600081815481106108e9576108e8611ede565b5b906000526020600020906007020160405180610100016040529081600082015481526020016001820160009054906101000a900473ffffffffffffffffffffffffffffffffffffffff1673ffffffffffffffffffffffffffffffffffffffff1673ffffffffffffffffffffffffffffffffffffffff16815260200160028201805461097390611f3c565b80601f016020809104026020016040519081016040528092919081815260200182805461099f90611f3c565b80156109ec5780601f106109c1576101008083540402835291602001916109ec565b820191906000526020600020905b8154815290600101906020018083116109cf57829003601f168201915b50505050508152602001600382018054610a0590611f3c565b80601f0160208091040260200160405190810160405280929190818152602001828054610a3190611f3c565b8015610a7e5780601f10610a5357610100808354040283529160200191610a7e565b820191906000526020600020905b815481529060010190602001808311610a6157829003601f168201915b5050505050815260200160048201548152602001600582018054610aa190611f3c565b80601f0160208091040260200160405190810160405280929190818152602001828054610acd90611f3c565b8015610b1a5780601f10610aef57610100808354040283529160200191610b1a565b820191906000526020600020905b815481529060010190602001808311610afd57829003601f168201915b505050505081526020016006820160009054906101000a900460ff161515151581526020016006820160019054906101000a900473ffffffffffffffffffffffffffffffffffffffff1673ffffffffffffffffffffffffffffffffffffffff1673ffffffffffffffffffffffffffffffffffffffff1681525050828481518110610ba757610ba6611ede565b5b6020026020010181905250600183610bbf9190611f9c565b92505b8080610bcd90611ff2565b91505061088d565b508092505050610f99565b6000600254600154610bf2919061203a565b67ffffffffffffffff811115610c0b57610c0a61197e565b5b604051908082528060200260200182016040528015610c4457816020015b610c31611889565b815260200190600190039081610c295790505b50905060005b600154811015610f92576000151560008281548110610c6c57610c6b611ede565b5b906000526020600020906007020160060160009054906101000a900460ff16151503610f7f5760008181548110610ca657610ca5611ede565b5b906000526020600020906007020160405180610100016040529081600082015481526020016001820160009054906101000a900473ffffffffffffffffffffffffffffffffffffffff1673ffffffffffffffffffffffffffffffffffffffff1673ffffffffffffffffffffffffffffffffffffffff168152602001600282018054610d3090611f3c565b80601f0160208091040260200160405190810160405280929190818152602001828054610d5c90611f3c565b8015610da95780601f10610d7e57610100808354040283529160200191610da9565b820191906000526020600020905b815481529060010190602001808311610d8c57829003601f168201915b50505050508152602001600382018054610dc290611f3c565b80601f0160208091040260200160405190810160405280929190818152602001828054610dee90611f3c565b8015610e3b5780601f10610e1057610100808354040283529160200191610e3b565b820191906000526020600020905b815481529060010190602001808311610e1e57829003601f168201915b5050505050815260200160048201548152602001600582018054610e5e90611f3c565b80601f0160208091040260200160405190810160405280929190818152602001828054610e8a90611f3c565b8015610ed75780601f10610eac57610100808354040283529160200191610ed7565b820191906000526020600020905b815481529060010190602001808311610eba57829003601f168201915b505050505081526020016006820160009054906101000a900460ff161515151581526020016006820160019054906101000a900473ffffffffffffffffffffffffffffffffffffffff1673ffffffffffffffffffffffffffffffffffffffff1673ffffffffffffffffffffffffffffffffffffffff1681525050828481518110610f6457610f63611ede565b5b6020026020010181905250600183610f7c9190611f9c565b92505b8080610f8a90611ff2565b915050610c4a565b5080925050505b919050565b6004600082815260200190815260200160002060009054906101000a900460ff16610fc857600080fd5b6005600082815260200190815260200160002060009054906101000a900460ff1615610ff357600080fd5b60003390506000806003600085815260200190815260200160002054815481106110205761101f611ede565b5b906000526020600020906007020160405180610100016040529081600082015481526020016001820160009054906101000a900473ffffffffffffffffffffffffffffffffffffffff1673ffffffffffffffffffffffffffffffffffffffff1673ffffffffffffffffffffffffffffffffffffffff1681526020016002820180546110aa90611f3c565b80601f01602080910402602001604051908101604052809291908181526020018280546110d690611f3c565b80156111235780601f106110f857610100808354040283529160200191611123565b820191906000526020600020905b81548152906001019060200180831161110657829003601f168201915b5050505050815260200160038201805461113c90611f3c565b80601f016020809104026020016040519081016040528092919081815260200182805461116890611f3c565b80156111b55780601f1061118a576101008083540402835291602001916111b5565b820191906000526020600020905b81548152906001019060200180831161119857829003601f168201915b50505050508152602001600482015481526020016005820180546111d890611f3c565b80601f016020809104026020016040519081016040528092919081815260200182805461120490611f3c565b80156112515780601f1061122657610100808354040283529160200191611251565b820191906000526020600020905b81548152906001019060200180831161123457829003601f168201915b505050505081526020016006820160009054906101000a900460ff161515151581526020016006820160019054906101000a900473ffffffffffffffffffffffffffffffffffffffff1673ffffffffffffffffffffffffffffffffffffffff1673ffffffffffffffffffffffffffffffffffffffff16815250509050806020015173ffffffffffffffffffffffffffffffffffffffff166108fc64e8d4a510008360800151611300919061206e565b9081150290604051600060405180830381858888f1935050505015801561132b573d6000803e3d6000fd5b5060018160c0019015159081151581525050818160e0019073ffffffffffffffffffffffffffffffffffffffff16908173ffffffffffffffffffffffffffffffffffffffff168152505080600060036000868152602001908152602001600020548154811061139d5761139c611ede565b5b90600052602060002090600702016000820151816000015560208201518160010160006101000a81548173ffffffffffffffffffffffffffffffffffffffff021916908373ffffffffffffffffffffffffffffffffffffffff1602179055506040820151816002019080519060200190611418929190611803565b506060820151816003019080519060200190611435929190611803565b506080820151816004015560a082015181600501908051906020019061145c929190611803565b5060c08201518160060160006101000a81548160ff02191690831515021790555060e08201518160060160016101000a81548173ffffffffffffffffffffffffffffffffffffffff021916908373ffffffffffffffffffffffffffffffffffffffff16021790555090505060016005600085815260200190815260200160002060006101000a81548160ff0219169083151502179055506001600260008282546115069190611f9c565b92505081905550505050565b60606000805480602002602001604051908101604052809291908181526020016000905b828210156117fa578382906000526020600020906007020160405180610100016040529081600082015481526020016001820160009054906101000a900473ffffffffffffffffffffffffffffffffffffffff1673ffffffffffffffffffffffffffffffffffffffff1673ffffffffffffffffffffffffffffffffffffffff1681526020016002820180546115ca90611f3c565b80601f01602080910402602001604051908101604052809291908181526020018280546115f690611f3c565b80156116435780601f1061161857610100808354040283529160200191611643565b820191906000526020600020905b81548152906001019060200180831161162657829003601f168201915b5050505050815260200160038201805461165c90611f3c565b80601f016020809104026020016040519081016040528092919081815260200182805461168890611f3c565b80156116d55780601f106116aa576101008083540402835291602001916116d5565b820191906000526020600020905b8154815290600101906020018083116116b857829003601f168201915b50505050508152602001600482015481526020016005820180546116f890611f3c565b80601f016020809104026020016040519081016040528092919081815260200182805461172490611f3c565b80156117715780601f1061174657610100808354040283529160200191611771565b820191906000526020600020905b81548152906001019060200180831161175457829003601f168201915b505050505081526020016006820160009054906101000a900460ff161515151581526020016006820160019054906101000a900473ffffffffffffffffffffffffffffffffffffffff1673ffffffffffffffffffffffffffffffffffffffff1673ffffffffffffffffffffffffffffffffffffffff168152505081526020019060010190611536565b50505050905090565b82805461180f90611f3c565b90600052602060002090601f0160209004810192826118315760008555611878565b82601f1061184a57805160ff1916838001178555611878565b82800160010185558215611878579182015b8281111561187757825182559160200191906001019061185c565b5b50905061188591906118fc565b5090565b60405180610100016040528060008152602001600073ffffffffffffffffffffffffffffffffffffffff16815260200160608152602001606081526020016000815260200160608152602001600015158152602001600073ffffffffffffffffffffffffffffffffffffffff1681525090565b5b808211156119155760008160009055506001016118fd565b5090565b6000604051905090565b600080fd5b600080fd5b6000819050919050565b6119408161192d565b811461194b57600080fd5b50565b60008135905061195d81611937565b92915050565b600080fd5b600080fd5b6000601f19601f8301169050919050565b7f4e487b7100000000000000000000000000000000000000000000000000000000600052604160045260246000fd5b6119b68261196d565b810181811067ffffffffffffffff821117156119d5576119d461197e565b5b80604052505050565b60006119e8611919565b90506119f482826119ad565b919050565b600067ffffffffffffffff821115611a1457611a1361197e565b5b611a1d8261196d565b9050602081019050919050565b82818337600083830152505050565b6000611a4c611a47846119f9565b6119de565b905082815260208101848484011115611a6857611a67611968565b5b611a73848285611a2a565b509392505050565b600082601f830112611a9057611a8f611963565b5b8135611aa0848260208601611a39565b91505092915050565b600080600080600060a08688031215611ac557611ac4611923565b5b6000611ad38882890161194e565b955050602086013567ffffffffffffffff811115611af457611af3611928565b5b611b0088828901611a7b565b945050604086013567ffffffffffffffff811115611b2157611b20611928565b5b611b2d88828901611a7b565b9350506060611b3e8882890161194e565b925050608086013567ffffffffffffffff811115611b5f57611b5e611928565b5b611b6b88828901611a7b565b9150509295509295909350565b611b818161192d565b82525050565b6000602082019050611b9c6000830184611b78565b92915050565b60008115159050919050565b611bb781611ba2565b8114611bc257600080fd5b50565b600081359050611bd481611bae565b92915050565b600060208284031215611bf057611bef611923565b5b6000611bfe84828501611bc5565b91505092915050565b600081519050919050565b600082825260208201905092915050565b6000819050602082019050919050565b611c3c8161192d565b82525050565b600073ffffffffffffffffffffffffffffffffffffffff82169050919050565b6000611c6d82611c42565b9050919050565b611c7d81611c62565b82525050565b600081519050919050565b600082825260208201905092915050565b60005b83811015611cbd578082015181840152602081019050611ca2565b83811115611ccc576000848401525b50505050565b6000611cdd82611c83565b611ce78185611c8e565b9350611cf7818560208601611c9f565b611d008161196d565b840191505092915050565b611d1481611ba2565b82525050565b6000611d2582611c42565b9050919050565b611d3581611d1a565b82525050565b600061010083016000830151611d546000860182611c33565b506020830151611d676020860182611c74565b5060408301518482036040860152611d7f8282611cd2565b91505060608301518482036060860152611d998282611cd2565b9150506080830151611dae6080860182611c33565b5060a083015184820360a0860152611dc68282611cd2565b91505060c0830151611ddb60c0860182611d0b565b5060e0830151611dee60e0860182611d2c565b508091505092915050565b6000611e058383611d3b565b905092915050565b6000602082019050919050565b6000611e2582611c07565b611e2f8185611c12565b935083602082028501611e4185611c23565b8060005b85811015611e7d5784840389528151611e5e8582611df9565b9450611e6983611e0d565b925060208a01995050600181019050611e45565b50829750879550505050505092915050565b60006020820190508181036000830152611ea98184611e1a565b905092915050565b600060208284031215611ec757611ec6611923565b5b6000611ed58482850161194e565b91505092915050565b7f4e487b7100000000000000000000000000000000000000000000000000000000600052603260045260246000fd5b7f4e487b7100000000000000000000000000000000000000000000000000000000600052602260045260246000fd5b60006002820490506001821680611f5457607f821691505b602082108103611f6757611f66611f0d565b5b50919050565b7f4e487b7100000000000000000000000000000000000000000000000000000000600052601160045260246000fd5b6000611fa78261192d565b9150611fb28361192d565b9250827fffffffffffffffffffffffffffffffffffffffffffffffffffffffffffffffff03821115611fe757611fe6611f6d565b5b828201905092915050565b6000611ffd8261192d565b91507fffffffffffffffffffffffffffffffffffffffffffffffffffffffffffffffff820361202f5761202e611f6d565b5b600182019050919050565b60006120458261192d565b91506120508361192d565b92508282101561206357612062611f6d565b5b828203905092915050565b60006120798261192d565b91506120848361192d565b9250817fffffffffffffffffffffffffffffffffffffffffffffffffffffffffffffffff04831182151516156120bd576120bc611f6d565b5b82820290509291505056fea2646970667358221220d29b7056ff387f36831255316257603b6d6e44ea406c1a3627f02750424e763464736f6c634300080e0033",
  "immutableReferences": {},
  "source": "// SPDX-License-Identifier: MIT\npragma solidity >=0.4.22 <0.9.0;\n\ncontract ArtComission {\n    struct Comission {\n        uint id;\n        address payable authorAddress;\n        string author;\n        string title;\n        uint price;\n        string info;\n        bool finished;\n        address purchaserAddress;\n    }\n\n    Comission[] comissions;\n    uint posted_count;\n    uint finished_count;\n    mapping(uint => uint) indexMapping;         // id mapping to index\n    mapping(uint => bool) isExistMapping;       // \n    mapping(uint => bool) isFinishedMapping;    // if finished\n    \n    // constructor() public {\n        \n    // }\n\n    function post(uint _id, string memory _author, string memory _title, uint _price, string memory _info) public payable returns (uint) {\n        // address payable _authorAddress = address(uint160(msg.sender));\n        address payable _authorAddress = payable(msg.sender);\n        \n        if (isExistMapping[_id]) {\n            Comission memory comission = comissions[indexMapping[_id]];\n            require(comission.authorAddress == _authorAddress);\n            require(!isFinishedMapping[_id]);\n            comission.author = _author;\n            comission.title = _title;\n            comission.price = _price;\n            comission.info = _info;\n            comissions[indexMapping[_id]] = comission;\n        } else {\n            comissions.push(Comission(\n                _id, _authorAddress, _author, _title, _price , _info, \n                false, address(0x0)\n            ));\n            indexMapping[_id] = posted_count;\n            isExistMapping[_id] = true;\n            isFinishedMapping[_id] = false;\n            posted_count += 1;\n        }\n        \n        return _id;\n    }\n\n    function purchase(uint _id) public payable {\n        require(isExistMapping[_id]);\n        require(!isFinishedMapping[_id]);\n        address _purchaserAddress = msg.sender;\n        Comission memory comission = comissions[indexMapping[_id]];\n        comission.authorAddress.transfer((comission.price * 1000000000000));\n        comission.finished = true;\n        comission.purchaserAddress = _purchaserAddress;\n        comissions[indexMapping[_id]] = comission;\n        isFinishedMapping[_id] = true;\n        finished_count += 1;\n    }\n\n    function get_all_comissions() public view returns(Comission[] memory) {\n        return comissions;\n    }\n\n    function get_selected_comissions(bool _finished) public view returns(Comission[] memory) {\n        uint idx = 0;\n        if (_finished) {\n            Comission[] memory selected_comissions = new Comission[](finished_count);\n            for (uint i = 0; i < posted_count; i++) { \n                if (comissions[i].finished == true) {\n                    selected_comissions[idx] = comissions[i];\n                    idx += 1;\n                }\n            }\n            return selected_comissions;\n        } else {\n            Comission[] memory selected_comissions = new Comission[](posted_count - finished_count);\n            for (uint i = 0; i < posted_count; i++) { \n                if (comissions[i].finished == false) {\n                    selected_comissions[idx] = comissions[i];\n                    idx += 1;\n                }\n            }\n            return selected_comissions;\n        } \n    }\n\n}",
  "sourcePath": "D:\\0-GitHub\\0cache\\Ethereum\\ArtComissionAuctionDApp\\dserver\\contracts\\ArtComission.sol",
  "compiler": {
    "name": "solc",
    "version": "0.8.14+commit.80d49f37.Emscripten.clang"
  },
  "schemaVersion": "3.4.7",
  "updatedAt": "2022-06-14T04:27:08.861Z",
  "networkType": "ethereum",
  "devdoc": {
    "kind": "dev",
    "methods": {},
    "version": 1
  },
  "userdoc": {
    "kind": "user",
    "methods": {},
    "version": 1
  }
}