{
  "contractName": "Auction",
  "abi": [
    {
      "inputs": [],
      "stateMutability": "nonpayable",
      "type": "constructor"
    },
    {
      "inputs": [
        {
          "internalType": "uint256",
          "name": "_id",
          "type": "uint256"
        },
        {
          "internalType": "string",
          "name": "_name",
          "type": "string"
        },
        {
          "internalType": "string",
          "name": "_info",
          "type": "string"
        },
        {
          "internalType": "uint256",
          "name": "_endTimestamp",
          "type": "uint256"
        }
      ],
      "name": "post",
      "outputs": [],
      "stateMutability": "payable",
      "type": "function",
      "payable": true
    },
    {
      "inputs": [
        {
          "internalType": "uint256",
          "name": "_price",
          "type": "uint256"
        }
      ],
      "name": "bid",
      "outputs": [],
      "stateMutability": "payable",
      "type": "function",
      "payable": true
    },
    {
      "inputs": [],
      "name": "pass",
      "outputs": [],
      "stateMutability": "payable",
      "type": "function",
      "payable": true
    },
    {
      "inputs": [],
      "name": "get_current_lot",
      "outputs": [
        {
          "components": [
            {
              "internalType": "uint256",
              "name": "id",
              "type": "uint256"
            },
            {
              "internalType": "address",
              "name": "auctioneer",
              "type": "address"
            },
            {
              "internalType": "uint256",
              "name": "endTimestamp",
              "type": "uint256"
            },
            {
              "internalType": "address payable",
              "name": "seller",
              "type": "address"
            },
            {
              "internalType": "string",
              "name": "name",
              "type": "string"
            },
            {
              "internalType": "string",
              "name": "token",
              "type": "string"
            },
            {
              "internalType": "string",
              "name": "info",
              "type": "string"
            },
            {
              "internalType": "address payable",
              "name": "bidder",
              "type": "address"
            },
            {
              "internalType": "uint256",
              "name": "highestPrice",
              "type": "uint256"
            },
            {
              "internalType": "bool",
              "name": "finished",
              "type": "bool"
            }
          ],
          "internalType": "struct Auction.Lot",
          "name": "",
          "type": "tuple"
        }
      ],
      "stateMutability": "view",
      "type": "function",
      "constant": true
    },
    {
      "inputs": [],
      "name": "get_candidate_lots",
      "outputs": [
        {
          "components": [
            {
              "internalType": "uint256",
              "name": "id",
              "type": "uint256"
            },
            {
              "internalType": "address",
              "name": "auctioneer",
              "type": "address"
            },
            {
              "internalType": "uint256",
              "name": "endTimestamp",
              "type": "uint256"
            },
            {
              "internalType": "address payable",
              "name": "seller",
              "type": "address"
            },
            {
              "internalType": "string",
              "name": "name",
              "type": "string"
            },
            {
              "internalType": "string",
              "name": "token",
              "type": "string"
            },
            {
              "internalType": "string",
              "name": "info",
              "type": "string"
            },
            {
              "internalType": "address payable",
              "name": "bidder",
              "type": "address"
            },
            {
              "internalType": "uint256",
              "name": "highestPrice",
              "type": "uint256"
            },
            {
              "internalType": "bool",
              "name": "finished",
              "type": "bool"
            }
          ],
          "internalType": "struct Auction.Lot[]",
          "name": "",
          "type": "tuple[]"
        }
      ],
      "stateMutability": "view",
      "type": "function",
      "constant": true
    },
    {
      "inputs": [],
      "name": "get_latest_lot",
      "outputs": [
        {
          "components": [
            {
              "internalType": "uint256",
              "name": "id",
              "type": "uint256"
            },
            {
              "internalType": "address",
              "name": "auctioneer",
              "type": "address"
            },
            {
              "internalType": "uint256",
              "name": "endTimestamp",
              "type": "uint256"
            },
            {
              "internalType": "address payable",
              "name": "seller",
              "type": "address"
            },
            {
              "internalType": "string",
              "name": "name",
              "type": "string"
            },
            {
              "internalType": "string",
              "name": "token",
              "type": "string"
            },
            {
              "internalType": "string",
              "name": "info",
              "type": "string"
            },
            {
              "internalType": "address payable",
              "name": "bidder",
              "type": "address"
            },
            {
              "internalType": "uint256",
              "name": "highestPrice",
              "type": "uint256"
            },
            {
              "internalType": "bool",
              "name": "finished",
              "type": "bool"
            }
          ],
          "internalType": "struct Auction.Lot",
          "name": "",
          "type": "tuple"
        }
      ],
      "stateMutability": "view",
      "type": "function",
      "constant": true
    }
  ],
  "bytecode": "0x608060405261ea60600055606460015534801561001b57600080fd5b5033600260006101000a81548173ffffffffffffffffffffffffffffffffffffffff021916908373ffffffffffffffffffffffffffffffffffffffff16021790555060006004819055506000600581905550611bf08061007c6000396000f3fe6080604052600436106100555760003560e01c8063225363e21461005a578063454a2ab3146100765780637b95216714610092578063a7a1ed72146100bd578063b18ab27a146100c7578063c5dfa9bd146100f2575b600080fd5b610074600480360381019061006f919061151a565b61011d565b005b610090600480360381019061008b91906115b9565b61041d565b005b34801561009e57600080fd5b506100a76105f7565b6040516100b491906117e2565b60405180910390f35b6100c5610940565b005b3480156100d357600080fd5b506100dc610afa565b6040516100e991906119ae565b60405180910390f35b3480156100fe57600080fd5b50610107610f12565b60405161011491906117e2565b60405180910390f35b6007600085815260200190815260200160002060009054906101000a900460ff161561014857600080fd5b600060045411156101a0576000546003600160045461016791906119ff565b8154811061017857610177611a33565b5b90600052602060002090600a0201600201546101949190611a62565b811161019f57600080fd5b5b60006040518060200160405280600081525090506003604051806101400160405280878152602001600260009054906101000a900473ffffffffffffffffffffffffffffffffffffffff1673ffffffffffffffffffffffffffffffffffffffff1681526020018481526020013373ffffffffffffffffffffffffffffffffffffffff168152602001868152602001838152602001858152602001600073ffffffffffffffffffffffffffffffffffffffff168152602001600081526020016000151581525090806001815401808255809150506001900390600052602060002090600a02016000909190919091506000820151816000015560208201518160010160006101000a81548173ffffffffffffffffffffffffffffffffffffffff021916908373ffffffffffffffffffffffffffffffffffffffff1602179055506040820151816002015560608201518160030160006101000a81548173ffffffffffffffffffffffffffffffffffffffff021916908373ffffffffffffffffffffffffffffffffffffffff160217905550608082015181600401908051906020019061034c929190611250565b5060a0820151816005019080519060200190610369929190611250565b5060c0820151816006019080519060200190610386929190611250565b5060e08201518160070160006101000a81548173ffffffffffffffffffffffffffffffffffffffff021916908373ffffffffffffffffffffffffffffffffffffffff16021790555061010082015181600801556101208201518160090160006101000a81548160ff021916908315150217905550505060016004600082825461040f9190611a62565b925050819055505050505050565b60036005548154811061043357610432611a33565b5b90600052602060002090600a020160090160009054906101000a900460ff161561045c57600080fd5b60015460036005548154811061047557610474611a33565b5b90600052602060002090600a0201600801546104919190611a62565b81101561049d57600080fd5b6003600554815481106104b3576104b2611a33565b5b90600052602060002090600a020160070160009054906101000a900473ffffffffffffffffffffffffffffffffffffffff1673ffffffffffffffffffffffffffffffffffffffff166108fc64e8d4a5100060036005548154811061051a57610519611a33565b5b90600052602060002090600a0201600801546105369190611ab8565b9081150290604051600060405180830381858888f19350505050158015610561573d6000803e3d6000fd5b503360036005548154811061057957610578611a33565b5b90600052602060002090600a020160070160006101000a81548173ffffffffffffffffffffffffffffffffffffffff021916908373ffffffffffffffffffffffffffffffffffffffff160217905550806003600554815481106105df576105de611a33565b5b90600052602060002090600a02016008018190555050565b6105ff6112d6565b60006004541161060e57600080fd5b6003600160045461061f91906119ff565b815481106106305761062f611a33565b5b90600052602060002090600a020160405180610140016040529081600082015481526020016001820160009054906101000a900473ffffffffffffffffffffffffffffffffffffffff1673ffffffffffffffffffffffffffffffffffffffff1673ffffffffffffffffffffffffffffffffffffffff168152602001600282015481526020016003820160009054906101000a900473ffffffffffffffffffffffffffffffffffffffff1673ffffffffffffffffffffffffffffffffffffffff1673ffffffffffffffffffffffffffffffffffffffff16815260200160048201805461071a90611b41565b80601f016020809104026020016040519081016040528092919081815260200182805461074690611b41565b80156107935780601f1061076857610100808354040283529160200191610793565b820191906000526020600020905b81548152906001019060200180831161077657829003601f168201915b505050505081526020016005820180546107ac90611b41565b80601f01602080910402602001604051908101604052809291908181526020018280546107d890611b41565b80156108255780601f106107fa57610100808354040283529160200191610825565b820191906000526020600020905b81548152906001019060200180831161080857829003601f168201915b5050505050815260200160068201805461083e90611b41565b80601f016020809104026020016040519081016040528092919081815260200182805461086a90611b41565b80156108b75780601f1061088c576101008083540402835291602001916108b7565b820191906000526020600020905b81548152906001019060200180831161089a57829003601f168201915b505050505081526020016007820160009054906101000a900473ffffffffffffffffffffffffffffffffffffffff1673ffffffffffffffffffffffffffffffffffffffff1673ffffffffffffffffffffffffffffffffffffffff168152602001600882015481526020016009820160009054906101000a900460ff161515151581525050905090565b600260009054906101000a900473ffffffffffffffffffffffffffffffffffffffff1673ffffffffffffffffffffffffffffffffffffffff163373ffffffffffffffffffffffffffffffffffffffff161461099a57600080fd5b6003600554815481106109b0576109af611a33565b5b90600052602060002090600a020160090160009054906101000a900460ff16156109d957600080fd5b60016003600554815481106109f1576109f0611a33565b5b90600052602060002090600a020160090160006101000a81548160ff021916908315150217905550600360055481548110610a2f57610a2e611a33565b5b90600052602060002090600a020160030160009054906101000a900473ffffffffffffffffffffffffffffffffffffffff1673ffffffffffffffffffffffffffffffffffffffff166108fc64e8d4a51000600360055481548110610a9657610a95611a33565b5b90600052602060002090600a020160080154610ab29190611ab8565b9081150290604051600060405180830381858888f19350505050158015610add573d6000803e3d6000fd5b50600160056000828254610af19190611a62565b92505081905550565b60606001600454610b0b91906119ff565b60055410610b1857600080fd5b60006002600554600454610b2c91906119ff565b610b3691906119ff565b67ffffffffffffffff811115610b4f57610b4e6113ef565b5b604051908082528060200260200182016040528015610b8857816020015b610b756112d6565b815260200190600190039081610b6d5790505b5090506000806001600554610b9d9190611a62565b90505b600454811015610f095760038181548110610bbe57610bbd611a33565b5b90600052602060002090600a020160405180610140016040529081600082015481526020016001820160009054906101000a900473ffffffffffffffffffffffffffffffffffffffff1673ffffffffffffffffffffffffffffffffffffffff1673ffffffffffffffffffffffffffffffffffffffff168152602001600282015481526020016003820160009054906101000a900473ffffffffffffffffffffffffffffffffffffffff1673ffffffffffffffffffffffffffffffffffffffff1673ffffffffffffffffffffffffffffffffffffffff168152602001600482018054610ca890611b41565b80601f0160208091040260200160405190810160405280929190818152602001828054610cd490611b41565b8015610d215780601f10610cf657610100808354040283529160200191610d21565b820191906000526020600020905b815481529060010190602001808311610d0457829003601f168201915b50505050508152602001600582018054610d3a90611b41565b80601f0160208091040260200160405190810160405280929190818152602001828054610d6690611b41565b8015610db35780601f10610d8857610100808354040283529160200191610db3565b820191906000526020600020905b815481529060010190602001808311610d9657829003601f168201915b50505050508152602001600682018054610dcc90611b41565b80601f0160208091040260200160405190810160405280929190818152602001828054610df890611b41565b8015610e455780601f10610e1a57610100808354040283529160200191610e45565b820191906000526020600020905b815481529060010190602001808311610e2857829003601f168201915b505050505081526020016007820160009054906101000a900473ffffffffffffffffffffffffffffffffffffffff1673ffffffffffffffffffffffffffffffffffffffff1673ffffffffffffffffffffffffffffffffffffffff168152602001600882015481526020016009820160009054906101000a900460ff161515151581525050838381518110610edc57610edb611a33565b5b6020026020010181905250600182610ef49190611a62565b91508080610f0190611b72565b915050610ba0565b50819250505090565b610f1a6112d6565b60045460055410610f2a57600080fd5b600360055481548110610f4057610f3f611a33565b5b90600052602060002090600a020160405180610140016040529081600082015481526020016001820160009054906101000a900473ffffffffffffffffffffffffffffffffffffffff1673ffffffffffffffffffffffffffffffffffffffff1673ffffffffffffffffffffffffffffffffffffffff168152602001600282015481526020016003820160009054906101000a900473ffffffffffffffffffffffffffffffffffffffff1673ffffffffffffffffffffffffffffffffffffffff1673ffffffffffffffffffffffffffffffffffffffff16815260200160048201805461102a90611b41565b80601f016020809104026020016040519081016040528092919081815260200182805461105690611b41565b80156110a35780601f10611078576101008083540402835291602001916110a3565b820191906000526020600020905b81548152906001019060200180831161108657829003601f168201915b505050505081526020016005820180546110bc90611b41565b80601f01602080910402602001604051908101604052809291908181526020018280546110e890611b41565b80156111355780601f1061110a57610100808354040283529160200191611135565b820191906000526020600020905b81548152906001019060200180831161111857829003601f168201915b5050505050815260200160068201805461114e90611b41565b80601f016020809104026020016040519081016040528092919081815260200182805461117a90611b41565b80156111c75780601f1061119c576101008083540402835291602001916111c7565b820191906000526020600020905b8154815290600101906020018083116111aa57829003601f168201915b505050505081526020016007820160009054906101000a900473ffffffffffffffffffffffffffffffffffffffff1673ffffffffffffffffffffffffffffffffffffffff1673ffffffffffffffffffffffffffffffffffffffff168152602001600882015481526020016009820160009054906101000a900460ff161515151581525050905090565b82805461125c90611b41565b90600052602060002090601f01602090048101928261127e57600085556112c5565b82601f1061129757805160ff19168380011785556112c5565b828001600101855582156112c5579182015b828111156112c45782518255916020019190600101906112a9565b5b5090506112d2919061136d565b5090565b60405180610140016040528060008152602001600073ffffffffffffffffffffffffffffffffffffffff16815260200160008152602001600073ffffffffffffffffffffffffffffffffffffffff168152602001606081526020016060815260200160608152602001600073ffffffffffffffffffffffffffffffffffffffff168152602001600081526020016000151581525090565b5b8082111561138657600081600090555060010161136e565b5090565b6000604051905090565b600080fd5b600080fd5b6000819050919050565b6113b18161139e565b81146113bc57600080fd5b50565b6000813590506113ce816113a8565b92915050565b600080fd5b600080fd5b6000601f19601f8301169050919050565b7f4e487b7100000000000000000000000000000000000000000000000000000000600052604160045260246000fd5b611427826113de565b810181811067ffffffffffffffff82111715611446576114456113ef565b5b80604052505050565b600061145961138a565b9050611465828261141e565b919050565b600067ffffffffffffffff821115611485576114846113ef565b5b61148e826113de565b9050602081019050919050565b82818337600083830152505050565b60006114bd6114b88461146a565b61144f565b9050828152602081018484840111156114d9576114d86113d9565b5b6114e484828561149b565b509392505050565b600082601f830112611501576115006113d4565b5b81356115118482602086016114aa565b91505092915050565b6000806000806080858703121561153457611533611394565b5b6000611542878288016113bf565b945050602085013567ffffffffffffffff81111561156357611562611399565b5b61156f878288016114ec565b935050604085013567ffffffffffffffff8111156115905761158f611399565b5b61159c878288016114ec565b92505060606115ad878288016113bf565b91505092959194509250565b6000602082840312156115cf576115ce611394565b5b60006115dd848285016113bf565b91505092915050565b6115ef8161139e565b82525050565b600073ffffffffffffffffffffffffffffffffffffffff82169050919050565b6000611620826115f5565b9050919050565b61163081611615565b82525050565b6000611641826115f5565b9050919050565b61165181611636565b82525050565b600081519050919050565b600082825260208201905092915050565b60005b83811015611691578082015181840152602081019050611676565b838111156116a0576000848401525b50505050565b60006116b182611657565b6116bb8185611662565b93506116cb818560208601611673565b6116d4816113de565b840191505092915050565b60008115159050919050565b6116f4816116df565b82525050565b60006101408301600083015161171360008601826115e6565b5060208301516117266020860182611627565b50604083015161173960408601826115e6565b50606083015161174c6060860182611648565b506080830151848203608086015261176482826116a6565b91505060a083015184820360a086015261177e82826116a6565b91505060c083015184820360c086015261179882826116a6565b91505060e08301516117ad60e0860182611648565b506101008301516117c26101008601826115e6565b506101208301516117d76101208601826116eb565b508091505092915050565b600060208201905081810360008301526117fc81846116fa565b905092915050565b600081519050919050565b600082825260208201905092915050565b6000819050602082019050919050565b60006101408301600083015161184960008601826115e6565b50602083015161185c6020860182611627565b50604083015161186f60408601826115e6565b5060608301516118826060860182611648565b506080830151848203608086015261189a82826116a6565b91505060a083015184820360a08601526118b482826116a6565b91505060c083015184820360c08601526118ce82826116a6565b91505060e08301516118e360e0860182611648565b506101008301516118f86101008601826115e6565b5061012083015161190d6101208601826116eb565b508091505092915050565b60006119248383611830565b905092915050565b6000602082019050919050565b600061194482611804565b61194e818561180f565b93508360208202850161196085611820565b8060005b8581101561199c578484038952815161197d8582611918565b94506119888361192c565b925060208a01995050600181019050611964565b50829750879550505050505092915050565b600060208201905081810360008301526119c88184611939565b905092915050565b7f4e487b7100000000000000000000000000000000000000000000000000000000600052601160045260246000fd5b6000611a0a8261139e565b9150611a158361139e565b925082821015611a2857611a276119d0565b5b828203905092915050565b7f4e487b7100000000000000000000000000000000000000000000000000000000600052603260045260246000fd5b6000611a6d8261139e565b9150611a788361139e565b9250827fffffffffffffffffffffffffffffffffffffffffffffffffffffffffffffffff03821115611aad57611aac6119d0565b5b828201905092915050565b6000611ac38261139e565b9150611ace8361139e565b9250817fffffffffffffffffffffffffffffffffffffffffffffffffffffffffffffffff0483118215151615611b0757611b066119d0565b5b828202905092915050565b7f4e487b7100000000000000000000000000000000000000000000000000000000600052602260045260246000fd5b60006002820490506001821680611b5957607f821691505b602082108103611b6c57611b6b611b12565b5b50919050565b6000611b7d8261139e565b91507fffffffffffffffffffffffffffffffffffffffffffffffffffffffffffffffff8203611baf57611bae6119d0565b5b60018201905091905056fea264697066735822122076615ec9180c212ba7a24e48d39e0357b5ee6e9e31f975e4cbdff2fcc2c5525164736f6c634300080e0033",
  "immutableReferences": {},
  "source": "// SPDX-License-Identifier: MIT\npragma solidity >=0.4.22 <0.9.0;\n\ncontract Auction {\n\n    uint INTERVAL = 60000;    // \n    uint LEASTMARKUP = 100;     // \n\n    struct Lot {\n        uint id;\n        address auctioneer;\n        uint endTimestamp;\n\n        address payable seller;\n        string name;\n        string token;           // NFT\n        string info;\n\n        address payable bidder;\n        uint highestPrice;\n\n        bool finished;\n    }\n\n    address auctioneer;\n    Lot[] lots;\n    uint posted_count;\n    uint current_idx;\n    mapping(uint => uint) indexMapping;         // id mapping to index\n    mapping(uint => bool) isExistMapping;       // \n    mapping(uint => bool) isFinishedMapping;    // if finished\n\n    constructor() {\n        auctioneer = msg.sender;\n        posted_count = 0;\n        current_idx = 0;\n    }\n\n    function post(uint _id, string memory _name, string memory _info, uint _endTimestamp) public payable {\n        require(!isExistMapping[_id]);\n        if (posted_count > 0) {\n            require(_endTimestamp > (lots[posted_count - 1].endTimestamp + INTERVAL));\n        }\n        string memory _token = '';\n        lots.push(Lot(_id, auctioneer, _endTimestamp, payable(msg.sender), _name, _token, _info, payable(address(0x0)), 0, false));\n        posted_count += 1;\n    }\n\n    function bid(uint _price) public payable {\n        require(!lots[current_idx].finished);\n        require(_price >= (lots[current_idx].highestPrice + LEASTMARKUP));\n        // \n        lots[current_idx].bidder.transfer((lots[current_idx].highestPrice * 1000000000000));\n        // \n        lots[current_idx].bidder = payable(msg.sender);\n        lots[current_idx].highestPrice = _price;\n    }\n\n    function pass() public payable {\n        require(msg.sender == auctioneer);\n        require(!lots[current_idx].finished);\n        lots[current_idx].finished = true;\n        // auctioneer\n        lots[current_idx].seller.transfer((lots[current_idx].highestPrice * 1000000000000));\n        current_idx += 1;\n    }\n\n    function get_current_lot() public view returns(Lot memory) {\n        require(current_idx < posted_count);\n        return lots[current_idx];\n    }\n\n    function get_candidate_lots() public view returns(Lot[] memory) {\n        require(current_idx < posted_count - 1);\n        Lot[] memory candidates = new Lot[](posted_count - current_idx - 2);\n        uint idx = 0;\n        for (uint i = current_idx + 1; i < posted_count; i++) {\n            candidates[idx] = lots[i];\n            idx += 1;\n        }\n        return candidates;\n    }\n\n    function get_latest_lot() public view returns(Lot memory) {\n        require(posted_count > 0);\n        return lots[posted_count - 1];\n    }\n}\n",
  "sourcePath": "D:\\0-GitHub\\0cache\\Ethereum\\ArtComissionAuctionDApp\\dserver\\contracts\\Auction.sol",
  "compiler": {
    "name": "solc",
    "version": "0.8.14+commit.80d49f37.Emscripten.clang"
  },
  "schemaVersion": "3.4.7",
  "updatedAt": "2022-06-14T04:27:10.360Z",
  "networkType": "ethereum",
  "devdoc": {
    "kind": "dev",
    "methods": {},
    "version": 1
  },
  "userdoc": {
    "kind": "user",
    "methods": {},
    "version": 1
  }
}